:020000040800F2
:1000000000500020C1400008A93E0008AF3E000893
:10001000B53E0008BB3E0008C13E000800000000DD
:10002000000000000000000000000000C73E0008C3
:10003000D33E000800000000DF3E0008EB3E000851
:100040000941000809410008094100080941000868
:100050000941000809410008094100080941000858
:100060000941000809410008094100080941000848
:100070000941000809410008094100080941000838
:100080000941000809410008094100080941000828
:10009000F93E00080941000809410008094100082B
:1000A0000941000809410008094100080941000808
:1000B00009410008094100080D3F000809410008F6
:1000C000213F0008094100080941000809410008D2
:1000D00009410008094100080941000809410008D8
:1000E000094100080941000809410008000000001A
:1000F0000000000000000000000000000000000000
:0C01000000000000000000005FF808F1A3
:1001100010B5054C237833B9044B13B10448AFF341
:1001200000800123237010BDC403002000000000E4
:10013000A459010808B5034B1BB103490348AFF3A9
:10014000008008BD00000000C8030020A459010879
:1001500010F8012B11F8013B012A28BF9A42F7D071
:10016000D01A7047034613F8012B002AFBD1181A46
:100170000138704781F0004102E000BF83F0004386
:1001800030B54FEA41044FEA430594EA050F08BF32
:1001900090EA020F1FBF54EA000C55EA020C7FEAF6
:1001A000645C7FEA655C00F0E2804FEA5454D4EB73
:1001B0005555B8BF6D420CDD2C4480EA020281EA3D
:1001C000030382EA000083EA010180EA020281EA75
:1001D0000303362D88BF30BD11F0004F4FEA0131C7
:1001E0004FF4801C4CEA113102D0404261EB4101D6
:1001F00013F0004F4FEA03334CEA133302D052425C
:1002000063EB430394EA050F00F0A780A4F1010417
:10021000D5F1200E0DDB02FA0EFC22FA05F2801851
:1002200041F1000103FA0EF2801843FA05F3594137
:100230000EE0A5F120050EF1200E012A03FA0EFCB6
:1002400028BF4CF0020C43FA05F3C01851EBE371E0
:1002500001F0004507D54FF0000EDCF1000C7EEBFD
:1002600000006EEB0101B1F5801F1BD3B1F5001F3B
:100270000CD349085FEA30004FEA3C0C04F101045A
:100280004FEA445212F5800F80F09A80BCF1004F83
:1002900008BF5FEA500C50F1000041EB045141EA05
:1002A000050130BD5FEA4C0C404141EB0101013CCE
:1002B00028BFB1F5801FE9D291F0000F04BF0146BD
:1002C0000020B1FA81F308BF2033A3F10B03B3F18F
:1002D00020020CDA0C3208DD02F1140CC2F10C021F
:1002E00001FA0CF021FA02F10CE002F11402D8BF7D
:1002F000C2F1200C01FA02F120FA0CFCDCBF41EA49
:100300000C019040E41AA2BF01EB0451294330BD17
:100310006FEA04041F3C1CDA0C340EDC04F11404F4
:10032000C4F1200220FA04F001FA02F340EA0300CB
:1003300021FA04F345EA030130BDC4F10C04C4F111
:10034000200220FA02F001FA04F340EA03002946F1
:1003500030BD21FA04F0294630BD94F0000F83F43B
:10036000801306BF81F480110134013D4EE77FEA1E
:10037000645C18BF7FEA655C29D094EA050F08BF6A
:1003800090EA020F05D054EA000C04BF194610464B
:1003900030BD91EA030F1EBF0021002030BD5FEA8F
:1003A000545C05D14000494128BF41F0004130BDB7
:1003B00014F580043CBF01F5801130BD01F000450B
:1003C00045F0FE4141F470014FF0000030BD7FEA7E
:1003D000645C1ABF194610467FEA655C1CBF0B4679
:1003E000024650EA013406BF52EA033591EA030F90
:1003F00041F4002130BD00BF90F0000F04BF002188
:10040000704730B54FF4806404F132044FF00005BA
:100410004FF0000150E700BF90F0000F04BF002133
:10042000704730B54FF4806404F1320410F0004599
:1004300048BF40424FF000013EE700BF42004FEA94
:10044000E2014FEA31014FEA02701FBF12F07F4311
:1004500093F07F4F81F06051704732F07F4208BFC8
:10046000704793F07F4F04BF41F40021704730B5CF
:100470004FF4607401F0004521F000411CE700BF1B
:1004800050EA010208BF704730B54FF000050AE09E
:1004900050EA010208BF704730B511F0004502D59F
:1004A000404261EB41014FF4806404F132045FEAA1
:1004B000915C3FF4D8AE4FF003025FEADC0C18BF4A
:1004C00003325FEADC0C18BF033202EBDC02C2F13C
:1004D000200300FA03FC20FA02F001FA03FE40EACE
:1004E0000E0021FA02F11444BDE600BF70B54FF0D2
:1004F000FF0C4CF4E06C1CEA11541DBF1CEA1355B0
:1005000094EA0C0F95EA0C0F00F0DEF82C4481EA17
:10051000030621EA4C5123EA4C5350EA013518BF37
:1005200052EA033541F4801143F4801338D0A0FB24
:1005300002CE4FF00005E1FB02E506F00042E0FBD1
:1005400003E54FF00006E1FB03569CF0000F18BFD7
:100550004EF0010EA4F1FF04B6F5007F64F540747F
:1005600004D25FEA4E0E6D4146EB060642EAC62112
:1005700041EA55514FEAC52040EA5E504FEACE2E7F
:10058000B4F1FD0C88BFBCF5E06F1ED8BEF1004F82
:1005900008BF5FEA500E50F1000041EB045170BDFE
:1005A00006F0004646EA010140EA020081EA030142
:1005B000B4EB5C04C2BFD4EB0C0541EA045170BD3E
:1005C00041F480114FF0000E013C00F3AB8014F1B8
:1005D000360FDEBF002001F0004170BDC4F1000401
:1005E000203C35DA0C341BDC04F11404C4F1200582
:1005F00000FA05F320FA04F001FA05F240EA0200DD
:1006000001F0004221F0004110EBD37021FA04F612
:1006100042EB06015EEA430E08BF20EAD37070BDCC
:10062000C4F10C04C4F1200500FA04F320FA05F02B
:1006300001FA04F240EA020001F0004110EBD3702D
:1006400041F100015EEA430E08BF20EAD37070BD9D
:10065000C4F1200500FA05F24EEA020E20FA04F376
:1006600001FA05F243EA020321FA04F001F0004125
:1006700021FA04F220EA020000EBD3705EEA430E96
:1006800008BF20EAD37070BD94F0000F0FD101F0C5
:100690000046400041EB010111F4801F08BF013CFE
:1006A000F7D041EA060195F0000F18BF704703F03C
:1006B0000046520043EB030313F4801F08BF013DC3
:1006C000F7D043EA0603704794EA0C0F0CEA13557F
:1006D00018BF95EA0C0F0CD050EA410618BF52EA39
:1006E0004306D1D181EA030101F000414FF000003F
:1006F00070BD50EA410606BF1046194652EA43064D
:1007000019D094EA0C0F02D150EA013613D195EAC0
:100710000C0F05D152EA03361CBF104619460AD108
:1007200081EA030101F0004141F0FE4141F4700112
:100730004FF0000070BD41F0FE4141F4780170BD02
:1007400070B54FF0FF0C4CF4E06C1CEA11541DBF67
:100750001CEA135594EA0C0F95EA0C0F00F0A7F869
:10076000A4EB050481EA030E52EA03354FEA013196
:1007700000F088804FEA03334FF0805545EA1313A9
:1007800043EA12634FEA022245EA111545EA106571
:100790004FEA00260EF000419D4208BF964244F108
:1007A000FD0404F5407402D25B084FEA3202B61A27
:1007B00065EB03055B084FEA32024FF480104FF4FB
:1007C000002CB6EB020E75EB030E22BFB61A75466F
:1007D00040EA0C005B084FEA3202B6EB020E75EB02
:1007E000030E22BFB61A754640EA5C005B084FEA6A
:1007F0003202B6EB020E75EB030E22BFB61A754637
:1008000040EA9C005B084FEA3202B6EB020E75EB41
:10081000030E22BFB61A754640EADC0055EA060E02
:1008200018D04FEA051545EA16754FEA06164FEA45
:10083000C30343EA52734FEAC2025FEA1C1CC0D1F1
:1008400011F4801F0BD141EA00014FF000004FF07E
:10085000004CB6E711F4801F04BF01430020B4F13F
:10086000FD0C88BFBCF5E06F3FF6AFAEB5EB030CF7
:1008700004BFB6EB020C5FEA500C50F1000041EBF4
:10088000045170BD0EF0004E4EEA113114EB5C04C1
:10089000C2BFD4EB0C0541EA045170BD41F4801194
:1008A0004FF0000E013C90E645EA060E8DE60CEA9C
:1008B000135594EA0C0F08BF95EA0C0F3FF43BAFB9
:1008C00094EA0C0F0AD150EA01347FF434AF95EA70
:1008D0000C0F7FF425AF104619462CE795EA0C0F54
:1008E00006D152EA03353FF4FDAE1046194622E721
:1008F00050EA410618BF52EA43067FF4C5AE50EAFB
:1009000041047FF40DAF52EA43057FF4EBAE12E7EA
:100910004FF0FF3C06E000BF4FF0010C02E000BFCB
:100920004FF0010C4DF804CD4FEA410C7FEA6C5CAE
:100930004FEA430C18BF7FEA6C5C1BD001B050EA51
:10094000410C0CBF52EA430C91EA030F02BF90EA3C
:10095000020F0020704710F1000F91EA030F58BFFB
:10096000994208BF90422CBFD8176FEAE37040F05D
:10097000010070474FEA410C7FEA6C5C02D150EAFB
:10098000013C07D14FEA430C7FEA6C5CD6D152EAB6
:10099000033CD3D05DF8040B704700BF844610467B
:1009A00062468C461946634600E000BF01B5FFF77A
:1009B000B7FF002848BF10F1000F01BD4DF808ED4A
:1009C000FFF7F4FF0CBF012000205DF808FB00BF1B
:1009D0004DF808EDFFF7EAFF34BF012000205DF875
:1009E00008FB00BF4DF808EDFFF7E0FF94BF0120C2
:1009F00000205DF808FB00BF4DF808EDFFF7CEFFC3
:100A000094BF012000205DF808FB00BF4DF808ED01
:100A1000FFF7C4FF34BF012000205DF808FB00BFD2
:100A20004FEA410C7FEA6C5C02D150EA013C0AD1EA
:100A30004FEA430C7FEA6C5C02D152EA033C02D1DC
:100A40004FF0000070474FF0010070474FEA41023D
:100A500012F5001215D211D56FF47873B3EB625210
:100A600012D94FEAC12343F0004343EA505311F037
:100A7000004F23FA02F018BF404270474FF00000C9
:100A8000704750EA013005D111F0004008BF6FF007
:100A9000004070474FF00000704700BF80F00040FA
:100AA00002E000BF81F0004142001FBF5FEA410346
:100AB00092EA030F7FEA226C7FEA236C6AD04FEA46
:100AC0001262D2EB1363C1BFD2184140484041408B
:100AD000B8BF5B42192B88BF704710F0004F40F43D
:100AE000000020F07F4018BF404211F0004F41F459
:100AF000000121F07F4118BF494292EA030F3FD025
:100B0000A2F1010241FA03FC10EB0C00C3F1200337
:100B100001FA03F100F0004302D5494260EB4000C6
:100B2000B0F5000F13D3B0F1807F06D340084FEA31
:100B3000310102F10102FE2A51D2B1F1004F40EB26
:100B4000C25008BF20F0010040EA0300704749008E
:100B500040EB0000013A28BFB0F5000FEDD2B0FA2B
:100B600080FCACF1080CB2EB0C0200FA0CF0AABF4E
:100B700000EBC25052421843BCBFD04018437047EC
:100B800092F0000F81F4000106BF80F400000132F2
:100B9000013BB5E74FEA41037FEA226C18BF7FEAC9
:100BA000236C21D092EA030F04D092F0000F08BF0B
:100BB0000846704790EA010F1CBF0020704712F0F2
:100BC0007F4F04D1400028BF40F00040704712F131
:100BD00000723CBF00F50000704700F0004343F096
:100BE000FE4040F4000070477FEA226216BF0846CC
:100BF0007FEA23630146420206BF5FEA412390EA8F
:100C0000010F40F4800070474FF0000304E000BF84
:100C100010F0004348BF40425FEA000C08BF704735
:100C200043F0964301464FF000001CE050EA0102F9
:100C300008BF70474FF000030AE000BF50EA01020E
:100C400008BF704711F0004302D5404261EB4101FB
:100C50005FEA010C02BF84460146002043F0B64320
:100C600008BFA3F18053A3F50003BCFA8CF2083A45
:100C7000A3EBC25310DB01FA02FC634400FA02FC4E
:100C8000C2F12002BCF1004F20FA02F243EB020055
:100C900008BF20F00100704702F1200201FA02FCB7
:100CA000C2F1200250EA4C0021FA02F243EB0200AA
:100CB00008BF20EADC7070474FF0FF0C1CEAD052EE
:100CC0001EBF1CEAD15392EA0C0F93EA0C0F6FD0AF
:100CD0001A4480EA010C400218BF5FEA41211ED08D
:100CE0004FF0006343EA501043EA5111A0FB013179
:100CF0000CF00040B1F5000F3EBF490041EAD3714E
:100D00005B0040EA010062F17F02FD2A1DD8B3F1C9
:100D1000004F40EBC25008BF20F00100704790F038
:100D2000000F0CF0004C08BF49024CEA502040EA8A
:100D300051207F3AC2BFD2F1FF0340EAC250704750
:100D400040F400004FF00003013A5DDC12F1190F8E
:100D5000DCBF00F000407047C2F10002410021FA00
:100D600002F1C2F1200200FA02FC5FEA310040F118
:100D7000000053EA4C0308BF20EADC70704792F091
:100D8000000F00F0004C02BF400010F4000F013AC9
:100D9000F9D040EA0C0093F0000F01F0004C02BFC4
:100DA000490011F4000F013BF9D041EA0C018FE733
:100DB0000CEAD15392EA0C0F18BF93EA0C0F0AD039
:100DC00030F0004C18BF31F0004CD8D180EA01005F
:100DD00000F00040704790F0000F17BF90F0004FF8
:100DE000084691F0000F91F0004F14D092EA0C0FDA
:100DF00001D142020FD193EA0C0F03D14B0218BF6D
:100E0000084608D180EA010000F0004040F0FE40B2
:100E100040F40000704740F0FE4040F4400070474E
:100E20004FF0FF0C1CEAD0521EBF1CEAD15392EACD
:100E30000C0F93EA0C0F69D0A2EB030280EA010CBD
:100E400049024FEA402037D04FF0805343EA111156
:100E500043EA10130CF000408B4238BF5B0042F1B4
:100E60007D024FF4000C8B4224BF5B1A40EA0C0059
:100E7000B3EB510F24BFA3EB510340EA5C00B3EB8B
:100E8000910F24BFA3EB910340EA9C00B3EBD10F79
:100E900024BFA3EBD10340EADC001B0118BF5FEACB
:100EA0001C1CE0D1FD2A3FF650AF8B4240EBC250F4
:100EB00008BF20F0010070470CF0004C4CEA5020B5
:100EC0007F32C2BFD2F1FF0340EAC250704740F404
:100ED00000004FF00003013A37E792F0000F00F0F6
:100EE000004C02BF400010F4000F013AF9D040EA74
:100EF0000C0093F0000F01F0004C02BF490011F408
:100F0000000F013BF9D041EA0C0195E70CEAD153FF
:100F100092EA0C0F08D142027FF47DAF93EA0C0FE6
:100F20007FF470AF084676E793EA0C0F04D14B02CA
:100F30003FF44CAF08466EE730F0004C18BF31F07C
:100F4000004CCAD130F000427FF45CAF31F0004376
:100F50007FF43CAF5FE700BF42000ED2B2F1FE4F1C
:100F60000BD34FF09E03B3EB126209D44FEA002378
:100F700043F0004323FA02F070474FF0000070473F
:100F800012F1610F01D1420202D14FF0FF307047E0
:100F90004FF00000704700BF80B483B000AF7860AE
:100FA00000BF0C37BD4680BC7047000080B582B0E2
:100FB00000AF0023FB718021064804F099F9034635
:100FC000012B00D0F7E700BFFB7918460837BD4674
:100FD00080BD00BF000C014080B584B002AF48F670
:100FE000B80003F0F5F801F0C1F901F001FD01F0DE
:100FF00069FE2549002001F0F5FE244A244900201D
:1010000001F0F0FE234A2449002001F0EBFE06F037
:1010100003FF0346214A82FB03129214DB17D31A03
:101020001A461F49002001F0DDFE1E49002001F094
:10103000D9FE00F037F901F0C1FCC82003F0C8F870
:10104000FFF7B4FF142003F0C3F801F06DFF164959
:10105000164801F0B1F9FB1D184601F009FD0346E1
:10106000002B0CD0F8794FF4FA7300930023002280
:101070000F4901F019FDFB79184601F067FD00BF2B
:101080000837BD4680BD00BFC0590108DC590108C2
:10109000E8590108005A01080C5A010883DE1B4375
:1010A000245A0108405A010831110008445A010825
:1010B000990F000880B582B000AF1849002001F0F8
:1010C00091FE174A1749002001F08CFE164A174975
:1010D000002001F087FE1149002001F083FE01F09D
:1010E000C9FF0A2003F074F801F0CEFF0A2003F0D4
:1010F0006FF802F061F80A2003F06AF802F0F8F8DD
:1011000001F0F5FE02467B68D31AB3F5FA7F02D3ED
:1011100001F0EDFE786001F0EBF9F1E74C5A0108BF
:10112000005A0108705A0108DC5901088C5A01085C
:1011300080B586B000AF03463960FB710023FB75B4
:10114000FB79012B0DD13B681B684849184601F01B
:10115000ABF90346002B04D0454801F091F9012377
:10116000FB75FB79022B23D13B681B68414918466C
:1011700001F09AF90346002B1AD03B6804331B6830
:10118000184601F0A4F90346FB7300233B6109E014
:101190003B690133FA7B1946374801F071F93B6925
:1011A00001333B61FB7B3A699A42F1DB0123FB751A
:1011B000FB79012B0DD13B681B683049184601F0C3
:1011C00073F90346002B04D0002001F057FA0123E5
:1011D000FB75FB79012B0DD13B681B68284918462C
:1011E00001F062F90346002B04D0002001F056FA0A
:1011F0000123FB75FB79012B0CD13B681B6821494E
:10120000184601F051F90346002B03D001F03CFFD2
:101210000123FB75FB79012B0CD13B681B681A4934
:10122000184601F041F90346002B03D002F060F8A4
:101230000123FB75FB7D83F00103DBB2002B11D092
:10124000124801F01DF9124801F01AF9114801F095
:1012500017F9114801F014F9104801F011F910487C
:1012600001F00EF900BF1837BD4680BDA85A01082D
:10127000B05A0108C45A0108CC5A0108DC5A0108C6
:10128000E45A0108EC5A0108F45A0108FC5A010812
:10129000085B01081C5B01082C5B01083C5B010832
:1012A0004C5B010880B500AF054803F081FB0322C9
:1012B0000449034803F088F80123184680BD00BFA5
:1012C000843700204012002080B485B000AF034670
:1012D000FB710023FB81FB79002B05D1FB79054ACB
:1012E00032F81330FB8100BFFB8918461437BD4626
:1012F00080BC70474012002080B584B000AF034628
:10130000FB71FB791846FFF7DFFF0346FB60FB68C4
:101310004FF4A57202FB03F31B0BBB60BB681846BE
:101320001037BD4680BD80B584B000AF78603960AD
:101330000023FB600023BB607B68002B01D10023EE
:1013400015E07868FEF70EFF03460133FB603B684B
:101350001B68F8689847B860BB68002B01D1002370
:1013600005E0FA687968B86812F0B5F8BB68184605
:101370001037BD4680BD80B584B000AF78607B6813
:101380001B6828209847F860FB68002B04D02822AF
:101390000021F86811F09CFFFB6818461037BD4625
:1013A00080BD000080B584B000AF78600023FB6092
:1013B00037E07B681B68FB607B68DB6803F4807345
:1013C000002B08D17B689B68002B04D07B689B684E
:1013D0001846FFF7E7FF7B68DB6803F48073002B98
:1013E00009D17B681B69002B05D0124B5B687A68BA
:1013F0001269104698477B68DB6803F40073002B82
:1014000009D17B681B6A002B05D00A4B5B687A68A0
:10141000126A10469847074B5B6878689847FB68E4
:101420007B607B68002BC4D100BF00BF1037BD4676
:1014300080BD00BF0000002080B400AF2E231846FE
:10144000BD4680BC704780B584B000AF786039601D
:101450000023FB600023BB607B68002B03D07B680C
:101460001B68002B01D1002383E07B685B68002BA5
:1014700007D07B689A687B685B689A4201D3002337
:1014800077E03B68002B01DA002372E07B689A6802
:101490003B68134401333B607B685B683A689A425F
:1014A00005D87B681A687B689B68134461E07B6899
:1014B0001B69002B01D000235BE03B68B3F1804F38
:1014C00008D33B68002B03DB6FF00043BB6004E0F4
:1014D00000234EE03B685B00BB607B681B6A002B0F
:1014E00018D07B681B6A7A681268B96810469847FA
:1014F000F860FB68002B32D17B68DB697A68126880
:10150000104698477B6800225A607B6800221A6068
:1015100000232EE07B689B69B8689847F860FB68F9
:10152000002B0DD17B68DB697A68126810469847FA
:101530007B6800225A607B6800221A60002318E052
:101540007B6819687B689B6801331A46F86811F05C
:10155000C2FF7B68DB697A681268104698477B682F
:10156000BA685A607B68FA681A607B689B68FA6898
:10157000134418461037BD4680BD90B585B000AF06
:1015800078600023FB607B68002B13D07B681B68AE
:10159000002B0FD07B681A687B689B681344FB6044
:1015A0007B689C68F868FEF7DDFD0346E2187B68FF
:1015B0009A6000E000BF1437BD4690BD2DE9B043EE
:1015C0008AB000AFC7E90601C7E90423BB69BB6065
:1015D000FB6923F00043FB603B693B607B6923F0C0
:1015E00000437B60D7E90023D7E90201FFF70EFA39
:1015F0000346002B04D0BC69FB6923F0004503E0DF
:101600003C697B6923F00045C7E90845D7E9042315
:10161000D7E90601FEF7B2FD02460B46904623F0DD
:1016200000494FF000020C4BD7E90801FEF75EFFBE
:1016300002460B4601210C4640464946FFF7D2F9C7
:101640000346002B01D100231C46E3B2184628377D
:10165000BD46BDE8B08300BF0000B03CF0B593B01C
:1016600000AF786039600023FB637B68D3E9062311
:10167000C7E90C2300237B6400233B6400237B61C8
:1016800007F1180300221A605A609A60DA601A6142
:101690009A82FFF7D1FE034687F82F304FF0000201
:1016A0004FF00003C7E902233B68002B01D1002360
:1016B000B0E0D7E90C23D7E90C01FFF7B1F90346F5
:1016C000002B21D13C6B7B6B23F0004501231E4690
:1016D0004FF0FF32514B20462946FFF7A1F9034650
:1016E000002B0BD14FF0FF324C4B20462946FFF721
:1016F00079F90346002B01D100231E46F3B283F093
:101700000103DBB2002B07D007F11403444918464C
:1017100011F080FC78643BE07B685B691846FEF75B
:101720007BFE02460B46D7E90C01FFF747F903465B
:10173000002B09D07B685A6907F114033949184610
:1017400011F068FC786423E007F11400D7E90C235A
:10175000354911F05FFC786407F1080207F11403C2
:101760003249184611F076FC0346012B08D1D7E91F
:101770000201D7E90C23FFF721FF0346002B07D115
:1017800007F11400D7E90C23294911F043FC7864D0
:101790007B6C002B02DB7B6C192B01DD002339E015
:1017A0007B6C013319463868FFF74DFEF863FB6B1D
:1017B000002B01D100232DE000233B641AE007F148
:1017C00014023B6C13441B7897F82F209A4205D1E2
:1017D000FA6B3B6C13442E221A7008E0FA6B3B6CD8
:1017E000134407F114013A6C0A4412781A703B6CE6
:1017F00001333B647B6C3A6C9A42E0D3FA6B3B6CEE
:10180000134400221A703B689A687B6C1A443B6848
:101810009A60012318464C37BD46F0BDFFFFEF7FAD
:10182000685B0108705B0108745B01087C5B010860
:10183000805B010880B588B000AF78603960002314
:10184000FB6100233B610023BB610023FB6000239D
:101850007B613B68002B01D1002310E17B68002BEA
:1018600011D103213868FFF7EEFD38613B69002B89
:1018700001D1002303E13B69834A118892781980E2
:101880009A700123FBE07B68FB6124E0FB691B7815
:10189000222B0FDC082B13DB083B7C4A22FA03F3D4
:1018A00003F00103002B14BF01230023DBB2002B44
:1018B00002D105E05C2B03D17B6901337B6107E03A
:1018C000FB691B781F2B02D87B6905337B6100BF46
:1018D000FB690133FB61FB691B78002BD6D1FA69E8
:1018E0007B68D31A1A467B691344FB60FB68033399
:1018F00019463868FFF7A7FD38613B69002B01D115
:101900000023BCE07B69002B17D13B6922221A70AF
:101910003B690133FA687968184611F0DCFDFB6811
:1019200001333A69134422221A70FB6802333A6980
:10193000134400221A700123A1E03B6922221A708D
:101940003B690133BB617B68FB6186E0FB691B7807
:101950001F2B0CD9FB691B78222B08D0FB691B7845
:101960005C2B04D0FB691A78BB691A706FE0BB6905
:101970005A1CBA615C221A70FB691B78222B3DDC71
:10198000082B59DB083B1A2B56D801A252F823F03A
:10199000111A0008311A0008211A0008391A000823
:1019A000191A0008291A0008391A0008391A0008FB
:1019B000391A0008391A0008391A0008391A0008BB
:1019C000391A0008391A0008391A0008391A0008AB
:1019D000391A0008391A0008391A0008391A00089B
:1019E000391A0008391A0008391A0008391A00088B
:1019F000391A0008391A0008091A00085C2B1BD193
:101A0000BB695C221A7022E0BB6922221A701EE0B8
:101A1000BB6962221A701AE0BB6966221A7016E06E
:101A2000BB696E221A7012E0BB6972221A700EE056
:101A3000BB6974221A700AE0FB691B781A461449C4
:101A4000B86911F0E7FABB690433BB6100BFFB69F9
:101A50000133FB61BB690133BB61FB691B78002B60
:101A60007FF474AFFB6801333A69134422221A7081
:101A7000FB6802333A69134400221A7001231846A6
:101A80002037BD4680BD00BF885B010837000004D9
:101A90008C5B010880B582B000AF786039607B68EC
:101AA0001B6939681846FFF7C5FE03461846083714
:101AB000BD4680BD80B58EB000AFF860B9607A6079
:101AC00000237B6307F1100324220021184611F044
:101AD000FFFB7B681B68384A12681046984703462C
:101AE0003B61354B1B687B61BB687B627A6807F1A1
:101AF000280307CA83E807003B69002B40D007F1A1
:101B000010031946F86800F069F80346002B39D035
:101B100007F110031846FFF730FD7B689B68002B28
:101B20000DD07B689B683869BA69013211469847C5
:101B300078637B6B002B27D000233B611EE07B6822
:101B40001B68BA6901321046984778637B6B002B9B
:101B50001CD03969BB695A1C7B69934228BF134664
:101B60001A46786B11F0B7FCBB697A6B13440022FC
:101B70001A707B685B683A69104698477B6B16E081
:101B800000BF04E000BF02E000BF00E000BF3B690F
:101B9000002B04D07B685B683A69104698477B6BE2
:101BA000002B03D07B685B68786B9847002318464E
:101BB0003837BD4680BD00BF5C61010880B582B08A
:101BC00000AF7860044A01217868FFF773FF03468D
:101BD00018460837BD4680BD0000002080B584B09F
:101BE00000AF786039600023FB607B68002B02D077
:101BF0003B68002B01D10023C9E07B68DB68DBB2C6
:101C0000802B00F08E80802B00F3C080202B49DCDD
:101C1000002B40F3BB80013B1F2B00F2B78001A2D9
:101C200052F823F0CF1C0008F31C00088D1D00089B
:101C3000AB1C00088D1D00088D1D00088D1D0008BF
:101C4000171D00088D1D00088D1D00088D1D000842
:101C50008D1D00088D1D00088D1D00088D1D0008BC
:101C6000691D00088D1D00088D1D00088D1D0008D0
:101C70008D1D00088D1D00088D1D00088D1D00089C
:101C80008D1D00088D1D00088D1D00088D1D00088C
:101C90008D1D00088D1D00088D1D00088D1D00087C
:101CA000751D0008402B6BD070E005213868FFF7E8
:101CB000CAFBF860FB68002B01D1002367E0FB68DA
:101CC000354A1068186012791A7101235FE0062105
:101CD0003868FFF7B8FBF860FB68002B01D10023E0
:101CE00055E0FB682D4A1068186092889A8001239D
:101CF0004DE005213868FFF7A6FBF860FB68002B74
:101D000001D1002343E0FB68254A1068186012796E
:101D10001A7101233BE039687868FFF79FFC03469E
:101D200035E00023BB607B681B69002B01D10023D9
:101D30002DE07B681B691846FEF714FA0346013351
:101D4000BB60B9683868FFF77EFBF860FB68002B62
:101D500001D100231BE07B681B69BA681946F8684B
:101D600011F0B9FB012312E039687868FFF792FEA1
:101D700003460CE03968786800F014F8034606E082
:101D80003968786800F094F8034600E000231846AC
:101D90001037BD4680BD00BF685B0108985B010835
:101DA000A05B010880B586B000AF78603960002381
:101DB0007B610023FB607B689B683B613B68002B79
:101DC00001D1002370E001213868FFF73CFB786106
:101DD0007B69002B01D1002366E07B695B221A70CE
:101DE0003B689B685A1C3B689A603B68DB685A1CDE
:101DF0003B68DA603DE039683869FFF7EFFE03467B
:101E0000002B01D100234FE03868FFF7B6FB3B6998
:101E10001B68002B2AD03B685B69002B01D0022392
:101E200000E00123FB60FB68013319463868FFF7C7
:101E30000AFB78617B69002B01D1002334E07B69C8
:101E40005A1C7A612C221A703B685B69002B04D003
:101E50007B695A1C7A6120221A707B6900221A70F1
:101E60003B689A68FB681A443B689A603B691B6848
:101E70003B613B69002BBED102213868FFF7E3FAD2
:101E800078617B69002B01D100230DE07B695A1C2E
:101E90007A615D221A707B6900221A703B68DB68E8
:101EA0005A1E3B68DA60012318461837BD4680BDCC
:101EB00080B588B000AF786039600023FB610023F3
:101EC000FB607B689B68BB613B68002B01D10023F2
:101ED00008E13B685B69002B01D0022300E001238D
:101EE000FB60FB68013319463868FFF7ACFAF8610C
:101EF000FB69002B01D10023F4E0FB695A1CFA6155
:101F00007B221A703B68DB685A1C3B68DA603B68CE
:101F10005B69002B04D0FB695A1CFA610A221A7013
:101F20003B689A68FB681A443B689A60A0E03B688B
:101F30005B69002B22D03B68DB6819463868FFF7E5
:101F400082FAF861FB69002B01D10023CAE000236B
:101F50007B6107E0FB695A1CFA6109221A707B69F0
:101F600001337B613B68DB687A699A42F2D33B6854
:101F70009A683B68DB681A443B689A60BB691B6AD5
:101F800039681846FFF756FC0346002B01D10023A1
:101F9000A8E03868FFF7F1FA3B685B69002B01D0D5
:101FA000022300E00123FB60F9683868FFF74BFA71
:101FB000F861FB69002B01D1002393E0FB695A1CF7
:101FC000FA613A221A703B685B69002B04D0FB6906
:101FD0005A1CFA6109221A703B689A68FB681A4415
:101FE0003B689A603968B869FFF7F8FD0346002B33
:101FF00001D1002376E03868FFF7BFFA3B685B69E0
:10200000002B01D0012200E00022BB691B68002BDD
:1020100001D0012300E000231344FB60FB6801337F
:1020200019463868FFF70FFAF861FB69002B01D1F8
:10203000002357E0BB691B68002B04D0FB695A1CC6
:10204000FA612C221A703B685B69002B04D0FB6993
:102050005A1CFA610A221A70FB6900221A703B6846
:102060009A68FB681A443B689A60BB691B68BB614D
:10207000BB69002B7FF45BAF3B685B69002B03D02F
:102080003B68DB68013300E0022319463868FFF73C
:10209000DAF9F861FB69002B01D1002322E03B68EB
:1020A0005B69002B10D000233B6107E0FB695A1CE1
:1020B000FA6109221A703B6901333B613B68DB68B6
:1020C000013B3A699A42F1D3FB695A1CFA617D22BD
:1020D0001A70FB6900221A703B68DB685A1E3B6865
:1020E000DA60012318462037BD4680BD80B483B036
:1020F00000AF786039607B683A681A603B687A683C
:102100005A6000BF0C37BD4680BC704780B584B0B4
:1021100000AF786039600023FB603B68002B06D07D
:102120007B68002B03D07A683B689A4201D1002378
:102130001EE07B689B68FB60FB68002B09D17B6815
:102140003A689A603B683A685A603B6800221A60B5
:102150000DE0FB685B68002B09D0FB685B683968A1
:102160001846FFF7C3FF7B689B683A685A600123F3
:1021700018461037BD4680BD80B483B000AF78608C
:102180007B6818460C37BD4680BC704780B586B06A
:1021900000AFF860B9607A603B6000237B61002388
:1021A0003B61FB68002B09D0BB68002B06D07B6825
:1021B000002B03D0FA687B689A4201D1002336E0F5
:1021C0003B6A002B09D0B868FFF7D6FF78617B68BF
:1021D000DB6843F400733B610EE03968B868FFF7D1
:1021E000A2F878617B69002B01D100231FE07B6896
:1021F000DB6823F400733B617B68DB6803F40073E6
:10220000002B09D17B681B6A002B05D03B685B68FB
:102210007A68126A104698477B687A691A627B6806
:102220003A69DA607968F868FFF770FF0346184684
:102230001837BD4680BD000080B586B002AFF8609B
:10224000B9607A6000230093054B7A68B968F86832
:10225000FFF79CFF034618461037BD4680BD00BF00
:10226000000000200000000080B584B000AFC7E986
:1022700000011F48FFF77FF8F860FB68002B2CD0A7
:10228000FB680822DA60F968D7E90023C1E9062370
:1022900015A3D3E90023D7E90001FEF7ADFB034600
:1022A000002B04D0FB686FF000425A6115E04FF03C
:1022B0000002104BD7E90001FEF794FB0346002B08
:1022C00004D0FB684FF000425A6106E0D7E90001F4
:1022D000FEF7BCFB0246FB685A61FB6818461037E4
:1022E000BD4680BDAFF300800000C0FFFFFFDF41AF
:1022F000000000200000E0C180B584B000AF78602D
:102300000F48FFF738F8F860FB68002B12D0FB6825
:102310001022DA600A497868FFF705F80246FB6880
:102320001A61FB681B69002B04D1F868FFF73AF8C3
:10233000002300E0FB6818461037BD4680BD00BF93
:102340000000002080B582B000AF0748FFF713F807
:1023500078607B68002B02D07B684022DA607B6863
:1023600018460837BD4680BD0000002080B582B009
:1023700000AF00237B600CE00C497A6813465B00D9
:1023800013449B000B44083300221A607B6801331E
:102390007B607B68072BEFDD0549064800F00CF8F1
:1023A000012318460837BD4680BD00BF88040020C1
:1023B00021240008A85B010880B582B000AF7860D6
:1023C0003960154B1B78072B01D9002320E0124BF5
:1023D0001B781A4613465B0013449B000F4A1344B4
:1023E00008227968184610F09AFF0B4B1B781946A3
:1023F0000A4A0B465B000B449B00134408333A68BF
:102400001A60054B1B780133DAB2034B1A700123B3
:1024100018460837BD4680BD84040020880400208B
:1024200080B584B000AF03463960FB71104800F0FE
:1024300027F80023FB600DE0FA6813465B001344A5
:102440009B000C4A134419460B4800F019F8FB682E
:102450000133FB60094B1B781A46FB689342EBDBA8
:10246000034800F00DF800BF1037BD4680BD00BF27
:10247000B05B010888040020CC5B010884040020C4
:102480000FB480B582B000AF07F114037B60002366
:102490007A683969184600F0DEFC00BF0837BD468F
:1024A000BDE8804004B0704780B582B000AF78606E
:1024B000396039687868FDF74BFE0346002B01D17F
:1024C000012300E0002318460837BD4680BD80B5D3
:1024D00084B000AF786000220021786810F070F8B6
:1024E0000346FB60FB6818461037BD4680BD000000
:1024F00080B586B000AF0023FB750023184600F0BE
:1025000013FC0346002B00F09E800023184600F0C9
:102510003BFC0346FB72FB7A0D2B6AD14C4B1B88AC
:102520001A464C4B00219954494B00221A80002333
:102530004949184600F056FC464B7B60474B002249
:102540001A800CE0454B1B881946454AFB6842F847
:102550002130424B1B8801339AB2404B1A807B6872
:102560003A1D4049184610F015FFF860FB68002B33
:10257000E8D100233B6130E0394B18683A691346D3
:102580005B0013449B00384A13441946FDF7E0FDF5
:102590000346002B1ED134493A6913465B001344AD
:1025A0009B000B4408331B68002B13D02E493A695B
:1025B00013465B0013449B000B4408331B68274AF7
:1025C0001288D2B2013AD2B2284910469847012364
:1025D000FB7508E03B6901333B61254B1B781A46CC
:1025E0003B699342C8DB00232249184600F0FAFBFE
:1025F00029E0FB7A082B0FD1154B1B88002B22D02A
:10260000134B1B88013B9AB2114B1A8000231A49C5
:10261000184600F0E7FB16E00D4B1B887E2B12D806
:102620000B4B1B881A46F97A0A4B9954084B1B88A6
:1026300001339AB2064B1A80002007F10B030122E6
:10264000194600F04FFBFB7D18461837BD4680BD8C
:1026500060040020E0030020D05B01086204002039
:1026600064040020D45B0108880400206804002072
:1026700084040020D85B0108E05B010880B582B0CB
:1026800000AF0346FB7100222021034802F047FE01
:1026900000BF0837BD4680BD0008014080B582B04C
:1026A00000AF0346FB7101222021034802F037FEF0
:1026B00000BF0837BD4680BD0008014080B582B02C
:1026C00000AF0346FB712021034802F040FE00BF2B
:1026D0000837BD4680BD00BF0008014080B485B00A
:1026E00000AFF860B9607A603B60FB68BA681A6056
:1026F000FB684FF07E525A60FB687A689A60FB680C
:102700003A68DA6000BF1437BD4680BC704780B5B8
:1027100086B000AF786039607B681B687B617B683E
:102720005A687B689B6819461046FEF7BDF9034658
:102730003B617B68DB6839691846FEF7B5F90346EB
:1027400019463869FEF76CFB0346FB607969386807
:10275000FEF7A8F90346F9681846FEF7ADFA0346F6
:1027600079691846FEF7A0F903461A467B681A6095
:10277000F9684FF07E50FEF795F90346396918461F
:10278000FEF79AFA03461A467B685A6000BF18376C
:10279000BD4680BD80B582B000AF4FF000030D4A4A
:1027A0004FF000010C48FFF799FF00F017F80346BF
:1027B0001846FEF729FA03467B6079680648FFF75A
:1027C000A6FF054B1B683B603B6818460837BD46B3
:1027D00080BD00BF0AD7233CE804002080B584B048
:1027E00000AF0023FB600023BB6040F225337B6019
:1027F0000020FEF781FDF860FB687A6802FB03F3B6
:102800005B08054AA2FB03239B09BB60BB68184613
:102810001037BD4680BD00BF0904028180B487B077
:1028200000AF78600B46FB700023FB7500233B6113
:1028300020E03B690133FB6015E03B699B007A684F
:1028400013441A68FB689B0079680B441B689A4222
:1028500006D13B699B007A6813441B68FB7506E050
:10286000FB680133FB60FB78FA689A42E5DB3B6961
:1028700001333B61FB783A699A42DADBFB7D18460B
:102880001C37BD4680BC704790B58FB000AF3B1D74
:1028900028220021184610F01BFD00233B63002373
:1028A00087F83730012387F82F30002387F8363038
:1028B0001EE0FFF76FFF034697F837401846FEF714
:1028C0004BFB0246A30038333B4443F8342C97F8C3
:1028D0003730013387F8373097F837300A2B02D179
:1028E000002387F82F3097F83630013387F83630D9
:1028F00097F83630092BDCD997F837203B1D114665
:102900001846FFF78BFF03463B633B6B18463C378B
:10291000BD4690BD80B584B002AF0023FB71FF239C
:10292000BB7100BF094805F0BBFE0346012BF9D17E
:10293000FA1DB91D0A2300930123044805F000FD88
:10294000FB7918460837BD4680BD00BF9036002091
:1029500080B586B002AF0346FB710023FB7300BF56
:10296000094805F09DFE0346012BF9D107F10F023E
:10297000F91D0A2300930123034805F0E1FC00BF81
:102980001037BD4680BD00BF9036002080B500AF37
:1029900000224FF48051024802F0C1FC00BF80BD0C
:1029A000000C014080B500AF01224FF48051024875
:1029B00002F0B5FC00BF80BD000C014080B500AF47
:1029C00000224FF40061094802F0A9FC4FF4FA70AC
:1029D00001F0FEFB01224FF40061044802F09FFC6D
:1029E000142001F0F5FB00BF80BD00BF000C0140CA
:1029F00080B582B000AF00237B6029E01A497A6875
:102A000013469B0013449B000B4400221A70164986
:102A10007A6813469B0013449B000B440433002246
:102A20001A6011497A6813469B0013449B000B44BB
:102A30000C3300221A600C497A6813469B00134439
:102A40009B000B44103300221A607B6801337B60CB
:102A50007B68072BD2DD054805F026FF01231846C9
:102A60000837BD4680BD00BFFC040020E8360020CA
:102A700080B483B000AF78600A4B1B78072B01D974
:102A800000230AE0074B1A787B681A70054B1B7805
:102A90000133DAB2034B1A70012318460C37BD46D6
:102AA00080BC7047F804002080B485B000AFB960E6
:102AB0007A601A460346FB731346BB73FB7B072BF6
:102AC00001D900233BE0FA7B1F4913469B001344C6
:102AD0009B000B440C33BA681A60FA7B1A49134600
:102AE0009B0013449B000B4410337A681A60FA7BF6
:102AF000154913469B0013449B000B440133BA7BDA
:102B00001A70FA7B104913469B0013449B000B4438
:102B1000043300221A60FA7B0B4913469B001344CE
:102B20009B000B440833BA691A60FA7B06491346C6
:102B30009B0013449B000B4400221A70012318468B
:102B40001437BD4680BC7047FC04002080B483B0BD
:102B500000AF0346FB71FB79072B01D9002313E07B
:102B6000FA790C4913469B0013449B000B44043331
:102B700000221A60FA79074913469B0013449B0010
:102B80000B4401221A70012318460C37BD4680BC45
:102B9000704700BFFC04002080B582B000AF002366
:102BA0007B6070E03D497A6813469B0013449B00AC
:102BB0000B441B78002B63D038497A6813469B007E
:102BC00013449B000B4404331B68591C33487A6838
:102BD00013469B0013449B000344043319602F49A0
:102BE0007A6813469B0013449B000B440433196816
:102BF0002A487A6813469B0013449B000344083319
:102C00001B6899423CD325497A6813469B001344BC
:102C10009B000B440C331B68002B13D01F497A68B0
:102C200013469B0013449B000B440C3319681B484C
:102C30007A6813469B0013449B00034410331B68BF
:102C40001846884715497A6813469B0013449B0031
:102C50000B44043300221A6010497A6813469B0023
:102C600013449B000B4401331B78012B08D10B4903
:102C70007A6813469B0013449B000B4400221A7091
:102C80007B6801337B60064B1B781A467B68934256
:102C900088DB00BF00BF0837BD4680BDFC040020B4
:102CA000F804002080B582B000AF78607B68044AE9
:102CB000934201D1FFF770FF00BF0837BD4680BDCA
:102CC000E836002080B500AF4FF480720349044815
:102CD00006F06BFA0123184680BD00BFA005002056
:102CE000F837002080B586B000AF0346B9607A603F
:102CF000FB7300237B61FB7B002B0ED17B689AB2B8
:102D00006423B968074806F0CDF90346FB74FB7CE1
:102D1000002B01D17B687B6100BF7B6918461837A7
:102D2000BD4680BDF837002080B485B000AF0346B3
:102D3000FB710023FB60FB79002B19D10F4BDB6B80
:102D40001B685B689BB2C3F580739BB2DBB29AB21F
:102D50000B4B1A800A4B1B8803F58073094A1288B3
:102D60009B1A5A42DBB2D2B258BF5342FB6000BF3B
:102D7000FB6818461437BD4680BC7047F837002002
:102D80009C0500209E05002080B485B000AF03465E
:102D9000FB710023FB73FB79002B17D10E4B1A88B4
:102DA0000E4B1B889A4210D00B4B1B881A460C4BBB
:102DB0009B5CFB73084B1B8801335A42DBB2D2B2D7
:102DC00058BF53429AB2044B1A8000BFFB7B18468F
:102DD0001437BD4680BC70479E0500209C0500202E
:102DE000A00500200EB480B5C7B000AF024607F5BD
:102DF0008C73A3F211131A700023C7F8143107F56E
:102E00009473C7F80C3107F10C00D7F80C31D7F8E0
:102E100024214FF4807110F0B7F9C7F81001D7F8EA
:102E20001031002B0DDDD7F8102107F10C0107F54B
:102E30008C73A3F211131B781846FFF753FFC7F8E2
:102E40001401D7F81431184607F58E77BD46BDE852
:102E5000804003B0704780B5C6B000AF07F58C73F3
:102E6000A3F58873196007F58C73A3F58A731A604C
:102E700007F58C73A3F2091302461A700023C7F8F2
:102E8000143107F58C73A3F58A7307F58C72A2F5DC
:102E9000887207F110001B6812684FF4807110F0FF
:102EA00073F9C7F81001D7F81031002B0DDDD7F8F2
:102EB000102107F1100107F58C73A3F209131B7899
:102EC0001846FFF70FFFC7F81401D7F8143118465A
:102ED00007F58C77BD4680BD80B582B000AF7860C5
:102EE000786801F075F900BF0837BD4680BD80B530
:102EF00000AF01F063F90346184680BD80B400AF0F
:102F0000BFF34F8F00BF064BDB6803F4E062044958
:102F1000044B1343CB60BFF34F8F00BF00BFFDE7EF
:102F200000ED00E00400FA0580B500AF09490A4849
:102F30000CF0D8FA642001F04BF9084908480CF06D
:102F4000F5FA642001F044F900F00CF8012318466A
:102F500080BD00BFA52900088D290008512900085F
:102F60001529000890B587B000AF3A4B07F1080467
:102F70000FCB84E80F000023FB714023BB80FFF7D9
:102F80001DFDC82001F024F907F1080319460120AE
:102F90000CF0F8FA0346B3F1FF3F03D12E490020AD
:102FA000FFF720FFC82001F013F93B1D194604204C
:102FB0000CF0E8FA0346B3F1FF3F03D127490020A4
:102FC000FFF710FFC82001F003F94FF464500AF036
:102FD000A7FF0346042B0BD04FF464500AF0A0FF68
:102FE00003461A461E490020FFF7FCFEFFF786FF46
:102FF0001C490020FFF7F6FE4FF464500AF090FFE2
:1030000003461A4618490020FFF7ECFE1549002038
:10301000FFF7E8FE15490020FFF7E4FEFB1D194607
:103020000F200CF0AFFA0346B3F1FF3F08D110496F
:103030000020FFF7D7FE0A20FFF74EFFFFF75EFFE5
:1030400097F90730002BE9D000BF00BF1C37BD4601
:1030500090BD00BFDC5C0108F05B01081C5C01084E
:10306000305C0108605C0108985C0108BC5C0108E8
:10307000C05C010880B500AF02480CF021FE0123BE
:10308000184680BD0C000020B0B584B004AF1722F4
:103090000021414810F01CF93F480CF051FE3F4917
:1030A0000020FFF79FFE3C4B1B781C463A4B5B7899
:1030B0001D46394B9B781A46374BDB781946364B01
:1030C0001B791846344B5B7903930290019100926F
:1030D0002B46224632490020FFF784FE2E4B9B7977
:1030E00019462D4BDB7918462B4B1B7A1A462A4B77
:1030F0005B7A0193009203460A462A490020FFF7B3
:1031000071FE254B9B7A1946234BDB7A1846224BDE
:103110001B7B1A46204B5B7B0193009203460A46B9
:1031200021490020FFF75EFE1B4B9B7B19461A4B83
:10313000DB7B1846184B1B7C1A46174B5B7C0193B4
:10314000009203460A4619490020FFF74BFE124B36
:103150009B7C1946104BDB7C18460F4B1B7D1A4697
:103160000D4B5B7D0193009203460A4610490020F7
:10317000FFF738FE09490020FFF734FE0D49002013
:10318000FFF730FE044B1B78FF2B01D1FFF7B6FE93
:1031900000BFBD46B0BD00BF0C000020EC5C0108C4
:1031A0001C5D01084C5D0108685D0108845D010833
:1031B000A05D0108BC5D010880B500AF0E4900208C
:1031C0000DF0AEF90D4B1C221A7000BF0C4A0D49D0
:1031D0000D480DF0C1F90346012BF7D10B49002032
:1031E000FFF700FE0A490020FFF7FCFD0749002019
:1031F000FFF7F8FD00BF80BD4C2E0020481C0020CA
:10320000A00600206061010824000020EC5C010899
:10321000C05D010880B5A2B002AF78607B681B6812
:103220003B677B685B68FB66FB6E5B687B670023C4
:10323000BB6728E07B6F632B02D96323FB6701E048
:103240007B6FFB67FB6F5A1C07F1080300211846D0
:1032500010F03EF8FB6E9A68BB6FD11807F10803B7
:10326000FA6F184610F037F907F108031A461B49A0
:103270000020FFF7B7FDBA6FFB6F1344BB677A6F8F
:10328000FB6FD31A7B677B6F002BD3D1144B5B682A
:10329000002B09D03B6FDB681A463B6F9B681149D6
:1032A0000020FFF79FFD14E03B6FDB6819463B6F82
:1032B0009A680B4B9B68009313460A460A49002004
:1032C000FFF790FD3B6F9B681A4608490020FFF707
:1032D00089FD00BF8037BD4680BD00BFEC5D0108A1
:1032E00030000020045E0108185E01082C5E010811
:1032F00090B5ADF50D7D04AF0023C7F81832B7497E
:103300000020FFF76FFDB6490020FFF76BFDB349C2
:103310000020FFF767FD07F1C803002118460EF0F3
:1033200017F8B04B1B689AB207F1C803AE491846AC
:103330000EF089F8034687F8173297F81732012BF9
:1033400040F08F80A9490020FFF74CFDA8490020DC
:10335000FFF748FD07F5D07307F1C80107F16C00CE
:103360004FF400620292A34A0192642200924FF449
:103370007A720DF049FA07F50873A3F507739E4AB0
:103380001846114658231A4610F0A5F807F5087399
:10339000A3F507730022DA7607F50873A3F5077320
:1033A00003221A72954B1A6807F50873A3F5077381
:1033B000DA60924B1A6907F50873A3F507731A646C
:1033C0008E4B5A6907F50873A3F50773DA6407F59E
:1033D0000873A3F507733C221A8307F50873A3F556
:1033E000077301229A763A1D07F16C0311461846BD
:1033F0000DF032FDC7F81802D7F8182280490020D6
:10340000FFF7F0FC7D4B01221A627E4A7E490020C4
:10341000FFF7E8FC794B1A7B07F16C007B4B79498D
:103420000DF0A0FDC7F81802D7F81822784900203F
:10343000FFF7D8FC07F50873A3F5E27300221A70B2
:1034400007F50873A3F5E27300225A7007F50873B5
:10345000A3F5E27300229A70FFF749FDC7F81C023A
:1034600001E0FFF74BFD07F50873A3F507731B8B0E
:103470001A4607F16C03114618460DF0A9FCD7F85F
:103480001C3203F51C541034FFF731FD03469C42F7
:10349000E9D2FFF72CFDC7F81C025A4A5D4900200B
:1034A000FFF7A0FC5C490020FFF79CFC504900207E
:1034B000FFF798FCFFF7E8F9C7F81002FFF78EF95D
:1034C000C7F80C02FEF73EFFC7F808025348FEF7A4
:1034D00013FF03461A465249D7F80802FEF7ACFE1E
:1034E000D7F81002FCF788FF02460B461046194633
:1034F000FEF7BAFE03461A464A49D7F80802FEF715
:103500009BFED7F80C02FCF777FF02460B461046ED
:103510001946FEF7A9FE03461A464349D7F80802A2
:10352000FEF78AFED7F80802FEF748FBC7F8040248
:1035300007F1D803D7F8041218460FF06BFD07F512
:103540000873A3F5E27307F1D8029A6007F1D80374
:103550001846FCF707FE024607F50873A3F5E27369
:10356000DA6007F15C0207F16C03264918460DF09A
:10357000A2FDC7F8180228490020FFF733FC1C49B8
:103580000020FFF72FFCD7F8182228490020FFF76A
:1035900029FC17490020FFF725FCD7F81832002B2B
:1035A00002D10020FFF78AF8D7F81832B3F1FF3FB5
:1035B0000AD11F490020FFF715FC07F16C031846DC
:1035C0000DF038FEFFF79AFCD7F80802FDF7EAFE87
:1035D000D7F804020EF014FE45E700BF605C010856
:1035E000385E0108280000202C000020485E0108F9
:1035F000605E0108A4060020485F0108300000203A
:10360000645E010870610108885E010815320008D7
:10361000A05E0108B45E0108CC5E0108F85E0108F6
:10362000FC5E0108045F01080C5F0108105F0108DF
:103630002C5F010880B500AF00F068FD00F015F8C0
:1036400000F0C4F900F0ACF900F080F900F06CF87B
:1036500000F0F8F800F02CF900F0C6F809F0EAFFE5
:10366000FDF7BAFCFDF726FDFEE780B594B000AF8C
:1036700007F128032822002118460FF029FE07F140
:10368000140300221A605A609A60DA601A613B1DC6
:1036900000221A605A609A60DA600923BB624FF414
:1036A0008033FB6200233B630123BB6301233B6444
:1036B00002237B644FF48033BB644FF4E013FB645C
:1036C00007F12803184604F03BF80346002B01D00D
:1036D00000F00CFA0F237B610223BB610023FB6126
:1036E0004FF480633B6200237B6207F114030221E5
:1036F000184604F0A7FA0346002B01D000F0F6F9B3
:1037000012237B604FF40043FB6000233B613B1DB1
:10371000184604F025FC0346002B01D000F0E6F922
:1037200000BF5037BD4680BD80B584B000AF3B1DA3
:1037300000221A605A609A60294B2A4A1A60284B64
:103740004FF480729A60264B01221A73244B002298
:103750001A75234B4FF46022DA61214B00225A6024
:103760001F4B03221A611E4800F056FD0346002B32
:1037700001D000F0BBF900237B600123BB6006236E
:10378000FB603B1D1946164800F018FF0346002B4E
:1037900001D000F0ABF910237B600223BB6007234C
:1037A000FB603B1D19460E4800F008FF0346002B46
:1037B00001D000F09BF911237B600323BB6005233C
:1037C000FB603B1D1946064800F0F8FE0346002B3F
:1037D00001D000F08BF900BF1037BD4680BD00BF9F
:1037E000843700200024014080B500AF134B144AF9
:1037F0001A60124B4FF4C8725A60104B00229A6044
:103800000E4B0022DA600D4B4FF480421A610B4BD5
:1038100000225A61094B00229A61084B0022DA61AA
:10382000064B00221A62054801F0AAFD0346002B50
:1038300001D000F05BF900BF80BD00BF3037002031
:103840000054004080B500AF174B184A1A60164B61
:103850004FF482725A60144B00229A60124B00227D
:10386000DA60114B00221A610F4B00225A610E4B95
:103870004FF400729A610C4B0022DA610A4B00226D
:103880001A62094B00225A62074B00229A62064BC9
:103890000A22DA62044804F0CFFC0346002B01D070
:1038A00000F024F900BF80BD9036002000380040B1
:1038B00080B586B000AF07F1080300221A605A6095
:1038C0009A60DA603B4600221A605A601D4B1E4A1D
:1038D0001A601C4B3F225A601A4B00229A60194B07
:1038E00040F2E732DA60174B00221A61154B0022D2
:1038F0009A61144804F088FF0346002B01D000F0C1
:10390000F5F84FF48053BB6007F1080319460D48E2
:1039100005F024F90346002B01D000F0E7F800235E
:103920003B6000237B603B461946064805F0FAFAE7
:103930000346002B01D000F0D9F800BF1837BD4670
:1039400080BD00BFE83600200008004080B500AF11
:10395000114B124A1A60104B4FF4E1325A600E4B71
:1039600000229A600C4B0022DA600B4B00221A6195
:10397000094B0C225A61084B00229A61064B002227
:10398000DA61054805F03EFB0346002B01D000F04C
:10399000ADF800BF80BD00BFF837002000440040F4
:1039A00080B483B000AF084B5B69074A43F0010362
:1039B0005361054B5B6903F001037B607B6800BFCB
:1039C0000C37BD4680BC70470010024080B588B0FF
:1039D00000AF07F1100300221A605A609A60DA60A3
:1039E0003E4B9B693D4A43F0200393613B4B9B69EF
:1039F00003F02003FB60FB68384B9B69374A43F0B8
:103A000004039361354B9B6903F00403BB60BB68FF
:103A1000324B9B69314A43F0080393612F4B9B69FA
:103A200003F008037B607B682C4B9B692B4A43F0B7
:103A300010039361294B9B6903F010033B603B68C3
:103A400000222021264801F06AFC00224FF4C051D8
:103A5000244801F064FC00224FF48071224801F0F8
:103A60005EFC20233B6101237B610023BB610223B9
:103A7000FB6107F110031946194801F0B5FA4FF43C
:103A8000C0533B6101237B610023BB610223FB61C7
:103A900007F110031946134801F0A6FA4FF480739A
:103AA0003B6101237B610023BB610223FB6107F1C2
:103AB000100319460C4801F097FA80233B6100235C
:103AC0007B610023BB6107F110031946054801F033
:103AD0008BFA00BF2037BD4680BD00BF00100240FA
:103AE00000080140000C01400010014080B400AF0C
:103AF00072B600BFFEE7000080B485B000AF154B82
:103B00009B69144A43F001039361124B9B6903F0D4
:103B10000103BB60BB680F4BDB690E4A43F0805367
:103B2000D3610C4BDB6903F080537B607B680A4BED
:103B30005B68FB60FB6823F0E063FB60FB6843F0BD
:103B40000073FB60044AFB68536000BF1437BD4636
:103B500080BC7047001002400000014080B588B072
:103B600000AF786007F1100300221A605A609A6073
:103B7000DA607B681B68284A934249D1274B9B69CE
:103B8000264A43F400739361244B9B6903F400734A
:103B9000FB60FB68214B9B69204A43F0040393615F
:103BA0001E4B9B6903F00403BB60BB6801233B61B0
:103BB00003237B6107F110031946194801F014FA39
:103BC000184B194A1A60174B00225A60154B0022F5
:103BD0009A60144B8022DA60124B4FF480721A61A3
:103BE000104B4FF480625A610E4B20229A610D4BAC
:103BF0000022DA610B4801F097F80346002B01D050
:103C0000FFF774FF7B68074A1A62064A7B685362B3
:103C100000BF2037BD4680BD002401400010024097
:103C200000080140B43700200800024080B58AB087
:103C300000AF786007F1140300221A605A609A609E
:103C4000DA607B681B68214A93423AD1204B9B691A
:103C50001F4A43F0080393611D4B9B6903F008035F
:103C60003B613B694FF440737B611223BB610323CB
:103C70003B6207F114031946164801F0B5F9164BDB
:103C80005B687B627B6A43F0E0637B627B6A43F044
:103C900002037B62104A7B6A53600D4BDB690C4A5E
:103CA00043F40013D3610A4BDB6903F40013FB6098
:103CB000FB6800220021202000F0FFFF202001F0FF
:103CC00018F800BF2837BD4680BD00BF0054004033
:103CD00000100240000C01400000014080B588B097
:103CE00000AF786007F1100300221A605A609A60F2
:103CF000DA607B681B681C4A934231D11B4BDB693D
:103D00001A4A43F48043D361184BDB6903F48043C0
:103D1000FB60FB68154B9B69144A43F008039361F1
:103D2000124B9B6903F00803BB60BB684FF4204350
:103D30003B6102237B610323FB6107F110031946FA
:103D40000B4801F051F94FF480433B6100237B6144
:103D50000023BB6107F110031946054801F044F93F
:103D600000BF2037BD4680BD003800400010024033
:103D7000000C014080B584B000AF78607B681B68A0
:103D80000D4A934213D10D4BDB690C4A43F00403F7
:103D9000D3610A4BDB6903F00403FB60FB6800227C
:103DA00003211E2000F089FF1E2000F0A2FF00BFAB
:103DB0001037BD4680BD00BF000800400010024023
:103DC00080B588B000AF786007F1100300221A6058
:103DD0005A609A60DA607B681B682E4A934255D11C
:103DE0002D4BDB692C4A43F40033D3612A4BDB694A
:103DF00003F40033FB60FB68274B9B69264A43F0C2
:103E000004039361244B9B6903F00403BB60BB680C
:103E100004233B6102237B610323FB6107F1100351
:103E200019461E4801F0E0F808233B6100237B613E
:103E30000023BB6107F110031946184801F0D4F8BC
:103E4000174B184A1A60164B00225A60144B002276
:103E50009A60134B8022DA60114B00221A61104BDA
:103E600000225A610E4B20229A610D4B0022DA612A
:103E70000B4800F059FF0346002B01D0FFF736FE38
:103E80007B68074ADA63064A7B68536200BF2037C3
:103E9000BD4680BD004400400010024000080140C3
:103EA0004C3600206C00024080B400AFFEE780B4C6
:103EB00000AFFEE780B400AFFEE780B400AFFEE7DE
:103EC00080B400AFFEE780B400AF00BFBD4680BC49
:103ED000704780B400AF00BFBD4680BC704780B45F
:103EE00000AF00BFBD4680BC704780B500AF00F09A
:103EF00053F900BF80BD000080B500AF024801F05B
:103F0000D6FF00BF80BD00BF0845002080B500AFD0
:103F1000024804F01BFD00BF80BD00BFE836002052
:103F200080B500AF024801F083FB00BF80BD00BF39
:103F30003037002080B400AF01231846BD4680BC56
:103F4000704780B582B000AF786039600FF080FABA
:103F5000034616221A604FF0FF3318460837BD4655
:103F600080BD80B582B000AF78604FF0FF317868D7
:103F7000FFF7E7FFFEE780B586B000AFF860B960F5
:103F80007A6000237B610AE0AFF300800146BB68E2
:103F90005A1CBA60CAB21A707B6901337B617A69B4
:103FA0007B689A42F0DB7B6818461837BD4680BDB7
:103FB00080B586B000AFF860B9607A6000237B619D
:103FC00009E0BB685A1CBA601B781846AFF3008042
:103FD0007B6901337B617A697B689A42F1DB7B689C
:103FE00018461837BD4680BD80B483B000AF7860F6
:103FF0004FF0FF3318460C37BD4680BC704780B485
:1040000083B000AF786039603B684FF400525A606B
:10401000002318460C37BD4680BC704780B483B07F
:1040200000AF7860012318460C37BD4680BC70474E
:1040300080B485B000AFF860B9607A60002318469C
:104040001437BD4680BC704780B586B000AF78603D
:10405000144A154BD31A7B617B693B61134B1B6878
:10406000002B02D1114B124A1A60104B1A687B6860
:1040700013443A699A4207D20FF0EAF903460C2238
:104080001A604FF0FF3309E0084B1B68FB60074BD9
:104090001A687B681344054A1360FB681846183792
:1040A000BD4680BD0050002000040000A40E00208A
:1040B0001048002080B400AF00BFBD4680BC7047F0
:1040C000FFF7F8FF0B480C490C4A002302E0D458D4
:1040D000C4500433C4188C42F9D3094A094C002354
:1040E00001E013600432A242FBD30FF0B7F9FFF7EF
:1040F000A1FA704700000020C40300206065010899
:10410000C40300200C480020FEE7000080B500AF8B
:10411000084B1B68074A43F010031360032000F0AC
:10412000C1FD002000F008F8FFF7E6FC0023184668
:1041300080BD00BF0020024080B582B000AF786033
:10414000124B1A68124B1B7819464FF47A73B3FB63
:10415000F1F3B2FBF3F3184600F0D9FD0346002B50
:1041600001D001230EE07B680F2B0AD8002279686A
:104170004FF0FF3000F0A1FD064A7B68136000237A
:1041800000E0012318460837BD4680BD54000020DA
:104190005C0000205800002080B400AF054B1B7865
:1041A0001A46054B1B681344034A136000BFBD4603
:1041B00080BC70475C0000204038002080B400AF15
:1041C000024B1B681846BD4680BC70474038002033
:1041D00080B584B000AF7860FFF7F0FFB8607B680F
:1041E000FB60FB68B3F1FF3F05D00A4B1B781A4612
:1041F000FB681344FB6000BFFFF7E0FF0246BB68AB
:10420000D31AFA689A42F7D800BF00BF1037BD46EC
:1042100080BD00BF5C00002080B586B000AF786034
:104220000023FB7500233B610023BB600023FB6080
:104230007B68002B01D10123BEE07B689B68002BCB
:104240007B689B6A002B09D17B680022DA627B685D
:10425000002283F824207868FFF780FC786800F05B
:10426000FFFA0346FB757B689B6A03F01003002B83
:1042700040F09980FB7D002B40F095807B689B6A25
:1042800023F4885323F0020343F002027B689A620E
:104290007B685A687B68DB691A437B681B7B5B0021
:1042A0001343BA681343BB607B689B68B3F5807F98
:1042B00003D07B689B68012B02D14FF4807300E030
:1042C00000233A6913433B617B681B7D012B19D1A5
:1042D0007B681B7B002B09D17B689B69013B5A03E0
:1042E0003B69134343F400633B610BE07B689B6ACB
:1042F00043F020027B689A627B68DB6A43F001022C
:104300007B68DA627B681B685B6823F469417B68C1
:104310001B683A690A435A607B681B689A68284B95
:1043200013407A681268B9680B4393607B689B6896
:10433000B3F5807F03D07B689B68012B04D17B6839
:104340001B69013B1B05FB607B681B68DB6A23F470
:1043500070017B681B68FA680A43DA627B681B6835
:104360009A68184B1340BA689A420BD17B680022B6
:10437000DA627B689B6A23F0030343F001027B68E7
:104380009A6218E07B689B6A23F0120343F01002E4
:104390007B689A627B68DB6A43F001027B68DA62C1
:1043A0000123FB7507E07B689B6A43F010027B6882
:1043B0009A620123FB75FB7D18461837BD4680BD08
:1043C000FDF7E1FFFE0E1FFF80B586B000AFF8607D
:1043D000B9607A600023FB75FB681B68644A9342EE
:1043E00004D0FB681B68634A934206D1604B5B684C
:1043F00003F47023002B40F0B380FB6893F8243063
:10440000012B01D10223AEE0FB68012283F82420B6
:10441000F86800F0CBF90346FB75FB7D002B40F0FC
:104420009A80FB689B6A23F4706323F0010343F4D2
:104430008072FB689A62FB681B684E4A934205D102
:104440004B4B5B6803F47023002B15D1FB689B6A10
:1044500023F48012FB689A62FB681B685B6803F4B4
:104460008063002B26D0FB689B6A23F4405343F4FF
:104470008052FB689A621DE0FB689B6A43F48012DD
:10448000FB689A62FB681B68394A934204D0FB6858
:104490001B68384A93420DD1354B5B6803F4806347
:1044A000002B07D0FB689B6A23F4405343F48052EF
:1044B000FB689A62FB689B6A03F48053002B06D06A
:1044C000FB68DB6A23F00602FB68DA6202E0FB6845
:1044D0000022DA62FB68002283F82420FB681B6A52
:1044E000254A9A62FB681B6A244ADA62FB681B6AE7
:1044F000234A1A63FB681B686FF002021A60FB68AC
:104500001B689A68FB681B6842F480729A60FB68BB
:10451000186AFB681B684C331946BA687B6800F060
:104520005DFCFB681B689B6803F46023B3F5602F98
:1045300008D1FB681B689A68FB681B6842F4A002FC
:104540009A600FE0FB681B689A68FB681B6842F47E
:1045500080129A6006E0FB68002283F8242001E0C4
:104560000123FB75FB7D18461837BD4680BD00BF93
:104570000024014000280140E34800085F4900088A
:104580007B49000880B483B000AF786000BF0C376F
:10459000BD4680BC704780B483B000AF786000BF78
:1045A0000C37BD4680BC704780B483B000AF7860E4
:1045B00000BF0C37BD4680BC7047000080B485B09A
:1045C00000AF786039600023FB730023BB607B6819
:1045D00093F82430012B01D10223DCE07B68012217
:1045E00083F824203B685B68062B1CD87B681B681B
:1045F000596B3B685A6813469B001344053B1F22C6
:1046000002FA03F3DB4319403B6818683B685A68B9
:1046100013469B001344053B00FA03F27B681B68BA
:104620000A435A633CE03B685B680C2B1CD87B68F0
:104630001B68196B3B685A6813469B001344233B65
:104640001F2202FA03F3DB4319403B6818683B68FA
:104650005A6813469B001344233B00FA03F27B681D
:104660001B680A431A631BE07B681B68D96A3B68B6
:104670005A6813469B001344413B1F2202FA03F37E
:10468000DB4319403B6818683B685A6813469B0037
:104690001344413B00FA03F27B681B680A43DA6269
:1046A0003B681B68092B1CD97B681B68D9683B6871
:1046B0001A6813465B0013441E3B072202FA03F3F9
:1046C000DB4319403B6898683B681A6813465B00F7
:1046D00013441E3B00FA03F27B681B680A43DA604E
:1046E00019E07B681B6819693B681A6813465B0010
:1046F0001344072202FA03F3DB4319403B6898682E
:104700003B681A6813465B00134400FA03F27B68A7
:104710001B680A431A613B681B68102B03D03B6877
:104720001B68112B32D17B681B681D4A934225D12F
:104730007B681B689B6803F40003002B26D17B6811
:104740001B689A687B681B6842F400029A603B68A9
:104750001B68102B1AD1134B1B68134AA2FB0323AF
:104760009A0C13469B0013445B00BB6002E0BB68DD
:10477000013BBB60BB68002BF9D107E07B689B6AFB
:1047800043F020027B689A620123FB737B6800225E
:1047900083F82420FB7B18461437BD4680BC704745
:1047A000002401405400002083DE1B4380B584B008
:1047B00000AF78600023FB600023BB607B681B6850
:1047C0009B6803F00103012B40D07B681B689A684B
:1047D0007B681B6842F001029A601F4B1B681F4AEE
:1047E000A2FB03239B0CBB6002E0BB68013BBB60E8
:1047F000BB68002BF9D1FFF7E1FCF8601FE0FFF781
:10480000DDFC0246FB68D31A022B18D97B681B68B3
:104810009B6803F00103012B11D07B689B6A43F076
:1048200010027B689A627B68DB6A43F001027B6856
:10483000DA627B68002283F82420012307E07B688A
:104840001B689B6803F00103012BD8D10023184695
:104850001037BD4680BD00BF5400002083DE1B43DF
:1048600080B584B000AF78600023FB607B681B6874
:104870009B6803F00103012B2ED17B681B689A68AB
:104880007B681B6822F001029A60FFF797FCF860D2
:104890001BE0FFF793FC0246FB68D31A022B14D9E6
:1048A0007B681B689B6803F00103012B0DD17B68BB
:1048B0009B6A43F010027B689A627B68DB6A43F074
:1048C00001027B68DA62012307E07B681B689B6852
:1048D00003F00103012BDCD0002318461037BD463E
:1048E00080BD80B584B000AF78607B685B6AFB6098
:1048F000FB689B6A03F05003002B27D1FB689B6A7F
:1049000043F40072FB689A62FB681B689B6803F4BF
:104910006023B3F5602F15D1FB681B7B002B11D1F1
:10492000FB689B6A23F48072FB689A62FB689B6A4F
:1049300003F48053002B05D1FB689B6A43F001020E
:10494000FB689A62F868FFF71DFE04E0FB681B6ACB
:104950001B6B7868984700BF1037BD4680BD80B597
:1049600084B000AF78607B685B6AFB60F868FFF733
:1049700012FE00BF1037BD4680BD80B584B000AFC9
:1049800078607B685B6AFB60FB689B6A43F040026F
:10499000FB689A62FB68DB6A43F00402FB68DA6238
:1049A000F868FFF701FE00BF1037BD4680BD00006C
:1049B00090B587B000AF78600023FB750023FB60E3
:1049C0007B6893F82430012B01D1022397E07B68A8
:1049D000012283F824207868FFF742FF0346FB7525
:1049E0007868FFF7E3FE0346FB75FB7D002B40F084
:1049F00081807B689B6A23F4885323F0020343F091
:104A000002027B689A62404B1C68022003F05EFB46
:104A10000346B4FBF3F35B00FB6002E0FB68013B81
:104A2000FB60FB68002BF9D17B681B689A687B6888
:104A30001B6842F008029A60FFF7C0FB38611BE078
:104A4000FFF7BCFB02463B69D31A0A2B14D97B68DB
:104A50001B689B6803F00803002B0DD07B689B6AE2
:104A600023F0120343F010027B689A627B680022F5
:104A700083F82420012342E07B681B689B6803F0D5
:104A80000803002BDCD17B681B689A687B681B6875
:104A900042F004029A60FFF791FB38611BE0FFF7D8
:104AA0008DFB02463B69D31A0A2B14D97B681B681D
:104AB0009B6803F00403002B0DD07B689B6A23F0F6
:104AC000120343F010027B689A627B68002283F82D
:104AD0002420012313E07B681B689B6803F0040318
:104AE000002BDCD17B689B6A23F0030343F00102B7
:104AF0007B689A627B68002283F82420FB7D18463D
:104B00001C37BD4690BD00BF5400002080B485B066
:104B100000AF78607B6803F00703FB600C4BDB6839
:104B2000BB60BA684FF6FF031340BB60FB681A0214
:104B3000BB68134343F0BF6343F40033BB60044AD4
:104B4000BB68D36000BF1437BD4680BC704700BF50
:104B500000ED00E080B400AF044BDB681B0A03F0FB
:104B600007031846BD4680BC704700BF00ED00E05B
:104B700080B483B000AF0346FB7197F90730002B78
:104B80000BDBFB7903F01F02064997F907305B093D
:104B9000012000FA02F241F8232000BF0C37BD4685
:104BA00080BC704700E100E080B483B000AF0346F2
:104BB0003960FB7197F90730002B0ADB3B68DAB2EA
:104BC0000C4997F907301201D2B20B4483F8002345
:104BD0000AE03B68DAB20849FB7903F00F03043BB3
:104BE0001201D2B20B441A7600BF0C37BD4680BC0E
:104BF000704700BF00E100E000ED00E080B489B044
:104C000000AFF860B9607A60FB6803F00703FB61EE
:104C1000FB69C3F10703042B28BF0423BB61FB69B5
:104C20000433062B02D9FB69033B00E000237B61C0
:104C30004FF0FF32BB6902FA03F3DA43BB681A4054
:104C40007B699A404FF0FF317B6901FA03F3D94346
:104C50007B680B40134318462437BD4680BC704721
:104C600080B582B000AF78607B68013BB3F1807F94
:104C700001D301230FE00A4A7B68013B53600F21F7
:104C80004FF0FF30FFF790FF054B00229A60044B76
:104C900007221A60002318460837BD4680BD00BFB2
:104CA00010E000E080B582B000AF78607868FFF770
:104CB0002DFF00BF0837BD4680BD80B586B000AF70
:104CC0000346B9607A60FB7300237B61FFF742FF04
:104CD00078617A68B9687869FFF790FF024697F9BA
:104CE0000F3011461846FFF75FFF00BF1837BD466B
:104CF00080BD80B582B000AF0346FB7197F90730E5
:104D00001846FFF735FF00BF0837BD4680BD80B5A8
:104D100082B000AF78607868FFF7A2FF03461846BC
:104D20000837BD4680BD000080B485B000AF786014
:104D30000023FB607B68002B01D1012343E07B68EB
:104D40001B681A46224B1344224AA2FB03231B0969
:104D50009A007B681A647B681F4ADA637B680222C8
:104D600083F821207B681B681B68FB60FB6823F4C9
:104D70007F5323F03003FB607B685A687B689B6835
:104D80001A437B68DB681A437B681B691A437B689C
:104D90005B691A437B689B691A437B68DB69134331
:104DA000FA681343FB607B681B68FA681A607B68CB
:104DB00000229A637B68012283F821207B6800220D
:104DC00083F82020002318461437BD4680BC704766
:104DD000F8FFFDBFCDCCCCCC0000024080B586B042
:104DE00000AFF860B9607A603B600023FB75FB6838
:104DF00093F82030012B01D102234BE0FB68012204
:104E000083F82020FB6893F82130DBB2012B3AD1E4
:104E1000FB68022283F82120FB6800229A63FB686A
:104E20001B681A68FB681B6822F001021A603B6865
:104E30007A68B968F86800F0A9F8FB68DB6A002BAB
:104E400008D0FB681B681A68FB681B6842F00E02FA
:104E50001A600FE0FB681B681A68FB681B6822F089
:104E600004021A60FB681B681A68FB681B6842F042
:104E70000A021A60FB681B681A68FB681B6842F02C
:104E800001021A6005E0FB68002283F8202002235B
:104E9000FB75FB7D18461837BD4680BD80B584B0D4
:104EA00000AF78600023FB737B6893F82130DBB29E
:104EB000022B05D07B6804229A630123FB7351E027
:104EC0007B681B681A687B681B6822F00E021A60F8
:104ED0007B681B681A687B681B6822F001021A60F5
:104EE0007B681B68224A934229D07B681B68214A51
:104EF000934222D07B681B681F4A93421AD07B687A
:104F00001B681E4A934212D07B681B681C4A93425E
:104F10000AD07B681B681B4A934202D14FF480136E
:104F20000EE04FF080730BE04FF4803308E04FF455
:104F3000805305E04FF4807302E0102300E001236A
:104F4000114A53607B68012283F821207B6800228C
:104F500083F820207B685B6B002B03D07B685B6B46
:104F600078689847FB7B18461037BD4680BD00BF68
:104F7000080002401C000240300002404400024091
:104F8000580002406C0002400000024080B485B02E
:104F900000AFF860B9607A603B60FB681A6CFB6830
:104FA000DB6B012101FA02F25A60FB681B683A6868
:104FB0005A60FB685B68102B08D1FB681B687A6835
:104FC0009A60FB681B68BA68DA6007E0FB681B68D8
:104FD000BA689A60FB681B687A68DA6000BF1437A9
:104FE000BD4680BC7047000080B48BB000AF7860D5
:104FF000396000237B6200233B6269E101227B6A06
:1050000002FA03F3FB613B681B68FA691340BB615A
:10501000BA69FB699A4240F058813B685B689A4ADA
:1050200093425ED0984A934275D8984A934258D09A
:10503000964A93426FD8964A934252D0944A9342EA
:1050400069D8944A93424CD0924A934263D8924A88
:10505000934246D0904A93425DD8122B2AD8122B05
:1050600059D801A252F823F0E3500008BD500008BF
:10507000CF500008115100081751000817510008BF
:105080001751000817510008175100081751000860
:105090001751000817510008175100081751000850
:1050A000175100081751000817510008C550000893
:1050B000D9500008794A934213D02CE03B68DB6852
:1050C0003B6229E03B68DB6804333B6224E03B68D9
:1050D000DB6808333B621FE03B68DB680C333B62F4
:1050E0001AE03B689B68002B02D104233B6213E06B
:1050F0003B689B68012B05D108233B627B68FA69FA
:105100001A6109E008233B627B68FA695A6103E08F
:1051100000233B6200E000BFBB69FF2B01D87B6826
:1051200001E07B6804337B61BB69FF2B02D87B6A9B
:105130009B0002E07B6A083B9B003B617B691A682D
:105140000F213B6901FA03F3DB431A40396A3B69DB
:1051500001FA03F31A437B691A603B685B6803F04A
:105160008053002B00F0B1804D4B9B694C4A43F0BB
:10517000010393614A4B9B6903F00103BB60BB6869
:10518000484A7B6A9B08023352F82330FB607B6AF3
:1051900003F003039B000F2202FA03F3DB43FA68D8
:1051A0001340FB607B68404A934213D07B683F4AC0
:1051B00093420DD07B683E4A934207D07B683D4ABC
:1051C000934201D1032306E0042304E0022302E01A
:1051D000012300E000237A6A02F003029200934068
:1051E000FA681343FB602F497B6A9B080233FA6815
:1051F00041F823203B685B6803F48013002B06D042
:105200002D4B9A682C49BB6913438B6006E02A4BEF
:105210009A68BB69DB43284913408B603B685B6835
:1052200003F40013002B06D0234BDA682249BB6934
:105230001343CB6006E0204BDA68BB69DB431E49B1
:105240001340CB603B685B6803F40033002B06D04F
:10525000194B5A681849BB6913434B6006E0164B5B
:105260005A68BB69DB43144913404B603B685B6879
:1052700003F48033002B21D00F4B1A680E49BB6911
:1052800013430B6021E000BF00003210000031101A
:105290000000221000002110000012100000111068
:1052A000001002400000014000080140000C0140D5
:1052B0000010014000140140000401400B4B1A682B
:1052C000BB69DB43094913400B607B6A01337B6296
:1052D0003B681A687B6A22FA03F3002B7FF48EAED8
:1052E00000BF00BF2C37BD4680BC704700040140A2
:1052F00080B485B000AF78600B467B807B689A688D
:105300007B881340002B02D00123FB7301E00023B4
:10531000FB73FB7B18461437BD4680BC704780B4D6
:1053200083B000AF78600B467B8013467B707B7840
:10533000002B03D07A887B681A6103E07B881A040B
:105340007B681A6100BF0C37BD4680BC704780B4D3
:1053500085B000AF78600B467B807B68DB68FB60C4
:105360007A88FB6813401A04FB68D9437B880B409A
:105370001A437B681A6100BF1437BD4680BC704772
:1053800080B584B000AF78607B68002B01D1012329
:105390002BE17B6893F83D30DBB2002B06D17B68B4
:1053A000002283F83C207868FEF740FC7B682422CA
:1053B00083F83D207B681B681A687B681B6822F0B5
:1053C00001021A607B681B681A687B681B6842F4DC
:1053D00000421A607B681B681A687B681B6822F4AD
:1053E00000421A6002F076FDF8607B685B68814AD3
:1053F000934207D8FB68804A934294BF012300235D
:10540000DBB206E0FB687D4A934294BF0123002390
:10541000DBB2002B01D00123E7E0FB68784AA2FB56
:1054200003239B0CBB607B681B685B6823F03F0118
:105430007B681B68BA680A435A607B681B681B6AF2
:1054400023F03F017B685B686A4A934202D8BB68DD
:10545000013309E0BB684FF4967202FB03F3694A1B
:10546000A2FB03239B0901337A6812680B43136282
:105470007B681B68DB6923F44F4222F0FF027B68E4
:105480005B685C498B4219D8FB68591E7B685B6876
:105490005B00B1FBF3F3591C40F6FC730B40002B8F
:1054A0000AD0FB68591E7B685B685B00B1FBF3F3B5
:1054B0000133C3F30B0351E004234FE07B689B6887
:1054C000002B11D1FB68581E7B6859680B465B00A6
:1054D0000B44B0FBF3F30133C3F30B03002B0CBFFE
:1054E00001230023DBB212E0FB68581E7B68596879
:1054F0000B469B000B4499000B44B0FBF3F30133C4
:10550000C3F30B03002B0CBF01230023DBB2002BE2
:1055100001D0012322E07B689B68002B0ED1FB6841
:10552000581E7B6859680B465B000B44B0FBF3F3D5
:105530000133C3F30B0343F400430FE0FB68581E31
:105540007B6859680B469B000B4499000B44B0FBE9
:10555000F3F30133C3F30B0343F440437968096861
:105560001343CB617B681B681B6823F0C0017B6819
:10557000DA697B681B6A1A437B681B680A431A60F6
:105580007B681B689B6823F4034323F0FF037A685E
:1055900011697A68D26811437A6812680B43936084
:1055A0007B681B68DB6823F0FF017B685A697B68B6
:1055B0009B691A437B681B680A43DA607B681B6837
:1055C0001A687B681B6842F001021A607B6800223F
:1055D0001A647B68202283F83D207B6800221A63CE
:1055E0007B68002283F83E20002318461037BD4612
:1055F00080BD00BFA08601007F841E00FF083D0023
:1056000083DE1B43D34D621080B483B000AF78605B
:105610007B681B685B6903F08003802B03D17B6888
:105620001B6800221A6100BF0C37BD4680BC704762
:1056300080B58AB000AF78607B681B685B693B62AD
:105640007B681B685B68FB6100237B627B6893F867
:105650003E30FB763B6A03F48073002B15D0FB6968
:1056600003F48073002B10D07B6A43F001037B624C
:105670007B681B686FF480725A617B681B681A68CC
:105680007B681B6842F400421A603B6A03F40073B3
:10569000002B0DD0FB6903F48073002B08D07B6ACC
:1056A00043F002037B627B681B686FF400725A61EF
:1056B0003B6A03F48063002B3ED0FB6903F48073E4
:1056C000002B39D0FB7EBB767B685B8D9BB27B6108
:1056D0007B6893F83D30FB747B681B6BFB60BB7E83
:1056E000202B12D17B69002B0FD1FB7C212B08D002
:1056F000FB7C292B05D0FB7C282B06D1FB68212BBA
:1057000003D1786800F060F816E07B681B686FF4DE
:1057100080625A617B6A43F004037B62FB7E102B3C
:1057200002D0FB7E402B07D17B681B681A687B6820
:105730001B6842F400721A603B6A03F40063002B9A
:105740000DD0FB6903F48073002B08D07B6A43F013
:1057500008037B627B681B686FF400625A617B6A96
:10576000002B08D07B681A6C7B6A1A437B681A642A
:10577000786800F09DF800BF2837BD4680BD80B432
:1057800083B000AF786000BF0C37BD4680BC704767
:1057900080B483B000AF786000BF0C37BD4680BCDA
:1057A000704780B483B000AF786000BF0C37BD464F
:1057B00080BC704780B483B000AF786000BF0C3706
:1057C000BD4680BC7047000080B584B000AF7860F3
:1057D0007B6893F83D30FB737B68DB6ABB60BB681A
:1057E000082B02D0BB68202B29D1FB7B282B26D18C
:1057F0007B682E4ADA627B681B685A687B681B6884
:1058000022F4E0625A607B681B686FF480625A6120
:105810007B681B681A687B681B6822F480621A60C8
:105820007B6800221A637B68202283F83D207B6816
:10583000002283F83E207868FFF7AAFF31E0FB7B67
:10584000212B29D17B68194ADA627B6821221A63ED
:105850007B68202283F83D207B68002283F83E206D
:105860007B681B685A687B681B6822F4E0625A6098
:105870007B681B686FF480625A617B681B681A68DA
:105880007B681B6822F480621A607868FFF7BCFEB0
:105890007868FFF774FF04E07B681B686FF4806230
:1058A0005A6100BF1037BD4680BD00BF0000FFFF3A
:1058B00080B584B000AF78607B6893F83D30FB73AF
:1058C0007B6893F83E30BB73BB7B102B02D0BB7B55
:1058D000402B0AD1FB7B222B07D17B681B681A68FF
:1058E0007B681B6822F400621A60FB7B03F02803CC
:1058F000282B07D17B6800221A637B68282283F853
:105900003D2015E07B681B685B6803F40063B3F51A
:10591000006F0AD0FB7B602B07D07B68202283F8C6
:105920003D207B68002283F83E207B6800221A63BA
:105930007B681B685B6803F40063B3F5006F62D19A
:105940007B681B685A687B681B6822F400625A6097
:105950007B685B6B93F82130DBB2012B20D07B6836
:105960005B6B6A4A5A637B685B6B1846FFF796FA73
:105970000346002B00F089807B681B681A687B68EF
:105980001B6822F001021A607B68202283F83D2008
:105990007B685B6B5B6B7A68526B1046984774E070
:1059A0007B689B6B594A5A637B689B6B1846FFF771
:1059B00075FA0346002B68D07B681B685B6903F0AF
:1059C0004003402B0BD17B681B681A697B685B6ABC
:1059D000D2B21A707B685B6A5A1C7B685A627B6819
:1059E0001B681A687B681B6822F001021A607B68DA
:1059F000202283F83D207B689B6B5B6B7A68926BFF
:105A00001046984741E07B6893F83D30DBB2602B4D
:105A100025D17B68202283F83D207B6800221A6410
:105A20007B681B685B6903F04003402B0BD17B68EC
:105A30001B681A697B685B6AD2B21A707B685B6A02
:105A40005A1C7B685A627B681B681A687B681B68F3
:105A500022F001021A607868FFF7ACFE15E07B685F
:105A60001B685B6903F04003402B0BD17B681B680C
:105A70001A697B685B6AD2B21A707B685B6A5A1CCF
:105A80007B685A627868FFF78CFE7B681B6CBB6092
:105A9000BB6803F00103002B0ED1BB6803F00203C7
:105AA000002B09D1BB6803F00403002B04D1BB68B1
:105AB00003F00803002B07D07B681B685A687B68DB
:105AC0001B6822F4E0625A607B6893F83D30FB73F8
:105AD0007B681B6C03F00403042B13D1FB7B282B86
